:1000000046C07AC05FC05EC05DC05CC05BC05AC005
:1000100059C058C057C056C055C054C053C052C034
:1000200051C050C04FC009021200010100803209C6
:10003000040000000000000012010002FF000008A0
:100040000912534100010102000112034D00530047
:10005000460054003100300030007E001803560086
:10006000690072007400750061006C00200045009A
:1000700050005000160361002E00730061006B00F9
:100080006800610072006F00760004030904112407
:100090001FBECFE5D4E0DEBFCDBF10E0A0E6B0E0EC
:1000A000E0E8FAE002C005900D92AA38B107D9F74E
:1000B00020E0AAE8B0E001C01D92A53CB207E1F73C
:1000C0005AD3DCC49DCFA82FB92F80E090E041E047
:1000D00050EA609530E009C02D9182279795879569
:1000E00010F084279527305EC8F36F5FA8F308955A
:1000F000EADF8D939D930895CF93CFB7CF93DF938E
:10010000C395849BE9F7849B0BC0849B09C0849BA7
:1001100007C0849B05C0849B03C0849B01C089C029
:100120006F93C091A800DD27C155DF4F2F9365E580
:10013000849B03C02F916F91E6CF0F931F934F9332
:1001400020E040E15F9300B3047104FB27F93F9383
:1001500050E03BE039C0147140642F77012F5F5F9E
:100160001EC0406810B314712F7752501FC04064F6
:1001700000B32F770471D1F15F5F00C023C04062EC
:1001800010B32F77147191F15F5F00C025C0047127
:100190001027515012F45D5F0000115027952C3F3D
:1001A00010B3C8F614710127015027952C3FC8F6EB
:1001B0004227499300B3047110274F7311502795BC
:1001C0002C3FA8F64695469510B3147179F0012797
:1001D000015027952C3F98F66B5A60F3315000B3CD
:1001E000B0F600C010E41ABF002717C03B5031958D
:1001F000C31BD04010E41ABF0881033CF9F00B3454
:10020000E9F02091A6001981110F1213EDCF0936E4
:1002100051F10D3211F0013E39F70093AD003F91DD
:100220005F914F911F910F912F916F91CAB7C6FDAA
:1002300067CFDF91CF91CFBFCF9118952091AD00BF
:10024000222369F31091AB00112339F534303AF1D0
:100250003093AB002093A7001091A8003BE0311B26
:100260003093A8001CC00091AB000130B4F40AE543
:100270003091610034FD14C000936100CBE9D0E0FF
:1002800013C0052710E000C0000002BB1AC00527FC
:1002900010E0221F1DC010E021C04AE502C032ED6F
:1002A000432FC4E1D0E032E011B31461949A02B359
:1002B00011BB54E120E865E320FF052702BB279529
:1002C00017951C3FF0F66695B8F7B1F720FF0527A4
:1002D00002BB279517951C3FD0F62795179517FF5A
:1002E000052700001C3F02BBB0F629913A9519F78B
:1002F0000B7E1091AC00110FC651D04002BB11F023
:100300001093A60010E41ABF006111B31B7E402FAA
:100310004B7E54E05A95F1F702BB11BB42BB7FCF35
:1003200083B3829581709B9982609A998460999930
:10033000886098998061B5998062B4998064B39916
:100340008068089580FF02C0AC9A01C0AC9881FF1C
:1003500002C0AB9A01C0AB9882FF02C0AA9A01C04A
:10036000AA9883FF02C0A99A01C0A99884FF02C07D
:10037000A89A01C0A89885FF02C0C59A01C0C59877
:1003800086FF02C0C49A01C0C49887FF02C0C39A06
:100390000895C3980895CF93C62FA49AA39AA29ABA
:1003A000A19AA09ABD9ABC9ABB9AAD98CBDFCC23F8
:1003B00019F0909A959802C09098959A85E08A9540
:1003C000F1F700008AE0B19906C095E09A95F1F73F
:1003D00000008150C1F786B386958170909A959AF6
:1003E000AD9A90918D0095FD09C0A49AA39AA29A06
:1003F000A19AA09ABD9ABC9ABB9A08C0A498A39847
:10040000A298A198A098BD98BC98BB98CF91089548
:10041000CF93DF93A498A398A298A198A098BD9891
:10042000BC98BB98AD9A662319F0909A959802C033
:100430009098959A2AE0B19906C035E03A95F1F77F
:1004400000002150C1F7B19B05C0EC0169DF888332
:1004500081E001C080E0909A959AB19B05C090918F
:100460008D00906290938D00DF91CF9108958091DF
:100470008E00882321F080918D0085FD09C0A49A0B
:10048000A39AA29AA19AA09ABD9ABC9ABB9A08C0B4
:10049000A498A398A298A198A098BD98BC98BB983E
:1004A000A59A889A8B9A8D9A8998BA98B9988E98B5
:1004B0008F98089590918E00981719F080938E0070
:1004C000D6CF0895CF938230D1F0C62F833018F461
:1004D000882341F06BC0833009F448C0843009F4AC
:1004E00051C064C080918E00882321F080918D00DE
:1004F00085FD5CC08C2F26DFC0938C0057C0809197
:100500008E00811105C0862F8F7180938D0019C0D8
:10051000862F8F7380938D0080918D0085FF09C099
:10052000A498A398A298A198A098BD98BC98BB98AD
:1005300008C0A49AA39AA29AA19AA09ABD9ABC9A1A
:10054000BB9A60FD02C0AD9A01C0AD9861FD02C0CA
:10055000909A01C0909862FF02C0939A01C093984C
:1005600063FD02C0959A22C0959820C080918E00AC
:100570008230E1F460938A0080918A00B1990CC0C6
:1005800061E011C080918E00823081F460938A0016
:1005900080918A00B19B06C080918B00816080931E
:1005A0008B0004C060E0F7DE8823B1F3CF9108959B
:1005B000CF93DF931F92CDB7DEB719828230B9F1A6
:1005C00028F4882341F0813099F048C0833091F1BC
:1005D0008430A1F143C080918E00882321F0809166
:1005E0008D0085FD03C080918C0039C099DE37C035
:1005F00080918B008170898310928B00B19902C029
:1006000080688983B29B03C0898180648983869BCB
:1006100003C0898180628983879B03C0898180614F
:100620008983819B19C089818860898315C08091E5
:100630008D0015C0B19904C061E009C0B19B06C02E
:1006400080918B00816080938B0006C060E0CE01BA
:100650000196DEDE8823A1F3898101C080E00F903E
:10066000DF91CF910895CF93C09190006C1708F45B
:10067000C62F4C2F50E06091910070E0D9D180914D
:1006800091008C0F80939100809190008C1B80933F
:1006900090008C2FCF910895CF93C0919000CC23E0
:1006A000C1F06C1708F4C62F4C2F50E060919100F8
:1006B00070E0CED1809191008C0F80939100909149
:1006C00090009C1B9093900081E0992319F080E0AA
:1006D00001C081E0CF910895FC0120812F77203463
:1006E00009F047C08181893049F128F4873099F0B9
:1006F0008830C9F03EC08A3049F18E37D1F5848107
:1007000095810497B1F582E690E09093AA008093DA
:10071000A90088E2089583E990E09093AA0080936D
:10072000A90088E0089582819381039720F082E0F8
:1007300090E0938382838281BDDE1BC0828193819E
:1007400085309105B0F46481BDDE13C08281938150
:100750008530910520F42CDF80938F0002C0109229
:100760008F008FE890E09093AA008093A90081E029
:10077000089580E008951092930083E1809394009F
:1007800085E08093950088EE97E0909397008093A2
:10079000960081E18093980082E280939900C8E1FD
:1007A000C0939A0080E086DE62DE8EE00FB6F89499
:1007B000A895C1BD0FBE81BD34D18C9A80E0815017
:1007C00041F0A895EFE9FFE03197F1F700C0000094
:1007D000F6CF8C987894A89501D0FDCFCF93DF9376
:1007E0006091AB00635067FDA9C08091A800CCE088
:1007F000D0E0C81BD109C155DF4F8091A7008D32D1
:1008000009F08BC0683009F097C083EC80939B009F
:100810008AE580936100109292008881807631F0A1
:10082000CE015ADF8F3F09F467C06DC08A811092F4
:10083000A4009981911106C01092A50024EA30E02D
:1008400082E055C0953019F48093AC0042C09630D8
:10085000D1F59B81913019F488E390E029C0923062
:1008600019F486E290E024C0933041F5811108C06C
:100870008AE890E09093AA008093A90084E01FC0CA
:10088000813041F484E790E09093AA008093A9001E
:1008900086E115C0823041F48CE590E09093AA0087
:1008A0008093A90088E10BC08E3E41F48AE490E079
:1008B0009093AA008093A90082E101C080E090E4B7
:1008C0009093920020C0983079F0993031F4809361
:1008D000AE0024EA30E080E00AC081E09A3009F0FE
:1008E00080E024EA30E003C02EEA30E081E030937B
:1008F000AA002093A90007C0988197FD8E8190E8F7
:100900009093920007C09F81911104C09E81981717
:1009100008F4892F809360000FC08091920087FFB8
:100920000BC0CE01B9DE8F3F21F48EE180936100D0
:1009300003C08111109260001092AB0080916100A1
:1009400084FF5BC0809160008F3F09F456C0C82FC0
:10095000893008F0C8E08C1B8093600090919B0068
:1009600088E8892780939B00CC2309F451C020910B
:10097000920027FF08C06C2F8CE990E074DEC82F2E
:100980008930A8F529C08091A9009091AA0026FF7E
:1009900012C0ABE9B0E02C2FAC014B595040FA012A
:1009A000EA0FFB1FE4911196EC93119721501196D9
:1009B0002111F5CF08C0ECE9F0E0DC012C2F3D91CE
:1009C00031932150E1F701962FEF2C0F820F911DEB
:1009D0009093AA008093A9006C2F8CE990E088DBAB
:1009E000CC5FCC3041F08FEF8093600004C08FEF7C
:1009F00080936000CEE1C093610084E190B3947174
:100A000069F48150D9F71092AC001092A60006C08C
:100A100060E08CE990E06CDBC4E0E5CFDF91CF9142
:100A2000089585B7826085BF8BB780648BBF0895BA
:100A3000DC01CB01FC01E199FECF06C0FFBBEEBBA0
:100A4000E09A31960DB20D9241505040B8F708959A
:100A5000DC01CB0102C02D9105D041505040D8F7A8
:100A60000895262FE199FECF9FBB8EBB2DBB0FB6FD
:100A7000F894E29AE19A0FBE01960895F894FFCF98
:100A8000FF5A2800000000010400010000000000DF
:100A90000000000157494E5553420000000000007D
:0A0AA000000000000000000000004C
:00000001FF
